:100000000C9434000C9446000C9446000C9446006A
:100010000C9446000C9446000C9446000C94460048
:100020000C9446000C9446000C9446000C94460038
:100030000C9446000C9446000C9446000C94460028
:100040000C9446000C9446000C9446000C94460018
:100050000C9446000C9446000C9446000C94460008
:100060000C9448000C94460011241FBECFEFD8E03A
:10007000DEBFCDBF21E0A0E0B1E001C01D92A13004
:10008000B207E1F70E948E000C949A000C940000D5
:100090001F920F920FB60F9211248F938091B90087
:1000A000887F8838B9F0F0F48037C1F078F4803672
:1000B000A9F0883699F08091BC008F778093BC00BE
:1000C0008F910F900FBE0F901F901895883731F0C9
:1000D000803889F78091BB00809300018091BC003B
:1000E000806C19C0803AD1F328F4803999F38839AB
:1000F00089F3E1CF803B21F0883C81F3883AD9F63F
:100100008FEF8093BB008091BC0080688093BC001F
:100110008091BC008F7B8093BC00CDCF8091640028
:100120008F778093640081E08093BA0085E48093A8
:08013000BC00FFCFF894FFCFE3
:00000001FF
